S0180000656D62646465645F63726561746976612E7372656399
S113000045C0000058C0000056C0000054C00000A5
S113001052C0000050C000004EC000004CC00000A0
S11300204AC0000048C0000046C0000044C00000B0
S113003042C0000040C000003EC000003CC00000C0
S11300403AC0000038C0000036C0000034C00000D0
S113005032C0000030C000002EC000002CC00000E0
S11300602AC0000028C0000026C0000024C00000F0
S113007022C0000020C000001EC000001CC0000000
S11300801AC0000018C0000016C0000011241FBED2
S1130090CFEFD0E1DEBFCDBF11E0A0E0B1E0E8EAF0
S11300A0FEE000E00BBF02C007900D92A832B1073A
S11300B0D9F75FD1F7C6A4CFCF93C82F40E060E053
S11300C082E07FD28FE99FE00197F1F700C0000042
S11300D0C4FB442740F963E082E073D2C5FB4427A4
S11300E040F964E082E06DD2C6FB442740F965E044
S11300F082E067D24C2F441F4427441F66E082E00D
S113010060D28FE99FE00197F1F700C0000041E061
S113011062E082E056D28FE99FE00197F1F700C0D8
S1130120000040E062E082E04CD28FE99FE001975A
S1130130F1F700C000004C2F417063E082E041D22F
S1130140C1FB442740F964E082E03BD2C2FB442770
S113015040F965E082E035D2C3FB442740F966E00C
S113016082E02FD28FE99FE00197F1F700C00000F1
S113017041E062E082E025D28FE99FE00197F1F748
S113018000C0000040E062E082E01BD28FE99FE003
S11301900197F1F700C00000CF9108952FEF89EF88
S11301A090E0215080409040E1F700C0000041E021
S11301B060E082E08DD141E061E082E089D141E0FC
S11301C062E082E085D141E063E082E081D141E0F8
S11301D064E082E07DD141E065E082E079D141E0F4
S11301E066E082E075D12FEF89EF90E021508040E6
S11301F09040E1F700C0000083E35EDF82E35CDF50
S113020088E25ADF8CE058DF81E056CF089590E40D
S1130210899F600D1124862F80684ECF089581E058
S11302204BDF8FE39FE10197F1F700C000000895D1
S1130230CF93C82F41E060E082E0C3D18FE99FE013
S11302400197F1F700C00000C4FB442740F963E0C4
S113025082E0B7D1C5FB442740F964E082E0B1D124
S1130260C6FB442740F965E082E0ABD14C2F441F24
S11302704427441F66E082E0A4D18FE99FE0019700
S1130280F1F700C0000041E062E082E09AD18FE91A
S11302909FE00197F1F700C0000040E062E082E0D7
S11302A090D18FE99FE00197F1F700C000004C2F37
S11302B0417063E082E085D1C1FB442740F964E0EA
S11302C082E07FD1C2FB442740F965E082E079D126
S11302D0C3FB442740F966E082E073D18FE99FE0D5
S11302E00197F1F700C0000041E062E082E069D1CB
S11302F08FE99FE00197F1F700C0000040E062E061
S113030082E05FD18FE99FE00197F1F700C0000020
S1130310CF910895CF93DF93EC0102C089DF21963A
S113032088818111FBCFDF91CF91089597B1907FA0
S11303308F70892B87B986B1806486B93699FECFD0
S113034084B195B1089580E0F1DF682F70E080E01A
S113035090E0B4D120E030E040EA50E414D220E050
S113036030E040E85AE30FD220E030E048EC52E4B9
S11303700AC2CF93DF93CDB7DEB760970FB6F89478
S1130380DEBF0FBECDBF41E060E083E0A1D041E01D
S113039061E083E09DD041E062E083E099D041E0F8
S11303A063E083E095D0FADE8CD0CDDFE62EF72E25
S11303B0082F192F34DF80E091E0ACDF1F930F93F7
S11303C0FF92EF9287E091E09F938F93CE01019685
S11303D06C019F938F938BD266E080E018DFC60197
S11303E099DF0FB6F894DEBF0FBECDBF20E030E03A
S11303F048E452E46E2D7F2D802F912FC0D1181622
S1130400BCF441E060E083E0DCD040E061E083E004
S1130410D8D040E062E083E0D4D041E063E083E000
S1130420D0D060E081E0F3DE84E191E073DF3FC08F
S113043020E030E040EF51E46E2D7F2D802F912F8E
S11304409ED1882314F120E030E048E452E46E2D7C
S11304507F2D802F912F2ED11816BCF040E060E044
S113046083E0AFD041E061E083E0ABD040E062E004
S113047083E0A7D040E063E083E0A3D060E081E0C4
S1130480C6DE8AE191E046DF12C040E060E083E02E
S113049098D040E061E083E094D041E062E083E002
S11304A090D060E081E0B3DE82E291E033DF9FE34D
S11304B02DE083E0915020408040E1F700C000002F
S11304C074CF87B1806487B986B1806886B908958E
S11304D0813019F130F08230E1F1833009F455C0F4
S11304E00895442319F0413069F008952AB381E056
S11304F090E002C0880F991F6A95E2F780958223E5
S11305008ABB08952AB381E090E002C0880F991F46
S11305106A95E2F7822B8ABB0895442319F041308F
S113052069F0089527B381E090E002C0880F991F15
S11305306A95E2F78095822387BB089527B381E00B
S113054090E002C0880F991F6A95E2F7822B87BB5F
S11305500895442319F0413069F0089524B381E0EB
S113056090E002C0880F991F6A95E2F78095822374
S113057084BB089524B381E090E002C0880F991FE2
S11305806A95E2F7822B84BB0895442319F0413025
S113059069F0089521B381E090E002C0880F991FAB
S11305A06A95E2F78095822381BB089521B381E0A7
S11305B090E002C0880F991F6A95E2F7822B81BBF5
S11305C00895813019F130F08230E1F1833009F47B
S11305D055C00895442319F0413069F008952BB3B0
S11305E081E090E002C0880F991F6A95E2F7809538
S11305F082238BBB08952BB381E090E002C0880F67
S1130600991F6A95E2F7822B8BBB0895442319F056
S1130610413069F0089528B381E090E002C0880F6A
S1130620991F6A95E2F78095822388BB089528B3C1
S113063081E090E002C0880F991F6A95E2F7822B4F
S113064088BB0895442319F0413069F0089525B317
S113065081E090E002C0880F991F6A95E2F78095C7
S1130660822385BB089525B381E090E002C0880F02
S1130670991F6A95E2F7822B85BB0895442319F0EC
S1130680413069F0089522B381E090E002C0880F00
S1130690991F6A95E2F78095822382BB089522B35D
S11306A081E090E002C0880F991F6A95E2F7822BDF
S11306B082BB089540D008F481E00895E89409C00D
S11306C097FB3EF490958095709561957F4F8F4F81
S11306D09F4F9923A9F0F92F96E9BB279395F69597
S11306E0879577956795B795F111F8CFFAF4BB0F15
S11306F011F460FF1BC06F5F7F4F8F4F9F4F16C079
S1130700882311F096E911C0772321F09EE8872F02
S1130710762F05C0662371F096E8862F70E060E0BE
S11307202AF09A95660F771F881FDAF7880F969537
S1130730879597F90895990F0008550FAA0BE0E8DB
S1130740FEEF16161706E807F907C0F0121613068F
S1130750E407F50798F0621B730B840B950B39F4CF
S11307600A2661F0232B242B252B21F408950A2635
S113077009F4A140A6958FEF811D811D0895DBDF4B
S113078008F48FEF08950BD078C069D028F06ED0AC
S113079018F0952309F05AC05FC01124A2C07ED07E
S11307A0A0F3959FD1F3950F50E0551F629FF00180
S11307B0729FBB27F00DB11D639FAA27F00DB11DD9
S11307C0AA1F649F6627B00DA11D661F829F222762
S11307D0B00DA11D621F739FB00DA11D621F839FE9
S11307E0A00D611D221F749F3327A00D611D231FBF
S11307F0849F600D211D822F762F6A2F11249F570D
S113080050408AF0E1F088234AF0EE0FFF1FBB1F2F
S1130810661F771F881F91505040A9F79E3F5105CE
S113082070F014C05EC05F3FECF3983EDCF3869535
S113083077956795B795F795E7959F5FC1F7FE2B79
S1130840880F911D9695879597F9089597F99F6755
S113085080E870E060E008959FEF80EC0895002444
S11308600A941616170618060906089500240A9411
S113087012161306140605060895092E0394000C97
S113088011F4882352F0BB0F40F4BF2B11F460FF26
S113089004C06F5F7F4F8F4F9F4F089557FD90584F
S11308A0440F551F59F05F3F71F04795880F97FB30
S11308B0991F61F09F3F79F08795089512161306EA
S11308C01406551FF2CF4695F1DF08C01616170619
S11308D01806991FF1CF869571056105089408954E
S11308E0E894BB2766277727CB0197F908950F93E0
S11308F01F93CF93DF93CDB7DEB72E970FB6F8943F
S1130900DEBF0FBECDBF0D891E8986E08C831A839E
S113091009838FEF9FE79E838D83AE01475E5F4F10
S11309206F89788DCE01019610D0EF81F885E00FA4
S1130930F11F10822E960FB6F894DEBF0FBECDBF06
S1130940DF91CF911F910F9108952F923F924F9273
S11309505F926F927F928F929F92AF92BF92CF924B
S1130960DF92EF92FF920F931F93CF93DF93CDB754
S1130970DEB72B970FB6F894DEBF0FBECDBF6C0168
S11309807B018A01FC0117821682838181FFBFC12A
S1130990CE0101963C01F6019381F70193FD859107
S11309A093FF81917F01882309F4ADC1853239F425
S11309B093FD859193FF81917F01853221F4B601E6
S11309C090E0D6D1E8CF912C212C312CFFE1F31506
S11309D0D8F08B3279F038F4803279F08332A1F494
S11309E0232D20611DC08D3261F0803369F4232DE5
S11309F0216016C0832D8260382EE32DE4603E2EE4
S1130A002AC0F32DF8601DC037FC2DC020ED280F3F
S1130A102A3040F08E32B9F436FC75C1232D20649F
S1130A20322E19C036FE06C08AE0989E200D11248D
S1130A30922E11C0EAE02E9E200D1124222EF32DB9
S1130A40F0623F2E08C08C3621F4832D8068382E46
S1130A5002C0883641F4F70193FD859193FF81919B
S1130A607F018111B3CF982F9F7D9554933028F443
S1130A700C5F1F4F9FE399830DC0833631F083379A
S1130A8071F0833509F055C020C0F8018081898355
S1130A900E5F1F4F88248394912C530112C02801A8
S1130AA0F2E04F0E511CF801A080B18036FE03C065
S1130AB0692D70E002C06FEF7FEFC5014ED14C018C
S1130AC08201F32DFF773F2E15C0280122E0420E4C
S1130AD0511CF801A080B18036FE03C0692D70E07E
S1130AE002C06FEF7FEFC5012DD14C01F32DF068EB
S1130AF03F2E820133FC19C0822D90E0881699069E
S1130B00A0F4B60180E290E033D12A94F5CFF50148
S1130B1037FC859137FE81915F01B60190E028D1C1
S1130B2021102A9421E0821A91088114910479F702
S1130B30E1C0843611F0893639F5F80137FE07C073
S1130B4060817181828193810C5F1F4F08C0608135
S1130B507181072E000C880B990B0E5F1F4FF32D2C
S1130B60FF763F2E97FF09C090958095709561950B
S1130B707F4F8F4F9F4FF0683F2E2AE030E0A30154
S1130B8033D1882E861844C0853731F4232D2F7E27
S1130B90B22E2AE030E025C0932D997FB92E8F36EE
S1130BA0C1F018F4883579F0AEC0803719F0883771
S1130BB021F0A9C0E92FE061BE2EB4FE0DC0FB2DCB
S1130BC0F460BF2E09C034FE0AC0292F2660B22E5D
S1130BD006C028E030E005C020E130E002C020E19A
S1130BE032E0F801B7FE07C0608171818281938190
S1130BF00C5F1F4F06C06081718180E090E00E5F42
S1130C001F4FA301F1D0882E8618FB2DFF773F2EAE
S1130C1036FE0DC0232D2E7FA22E891458F434FEE7
S1130C200BC032FC09C0832D8E7EA82E05C0B82CC3
S1130C30A32C03C0B82C01C0B92CA4FE0FC0FE0124
S1130C40E80DF11D8081803321F49A2D997EA92E1F
S1130C5009C0A2FE06C0B394B39404C08A2D86785A
S1130C6009F0B394A3FC10C0A0FE06C0B21480F433
S1130C70280C922C9B180DC0B21458F4B60180E2D3
S1130C8090E076D0B394F8CFB21418F42B1802C0C5
S1130C90982C212CA4FE0FC0B60180E390E068D00C
S1130CA0A2FE16C0A1FC03C088E790E002C088E55C
S1130CB090E0B6010CC08A2D867851F0A1FE02C0E6
S1130CC08BE201C080E2A7FC8DE2B60190E050D037
S1130CD0891430F4B60180E390E04AD09A94F8CFB6
S1130CE08A94F301E80DF11D8081B60190E040D0B3
S1130CF08110F6CF222009F44ECEB60180E290E0B6
S1130D0037D02A94F7CFF6018681978102C08FEFFE
S1130D109FEF2B960FB6F894DEBF0FBECDBFDF91C9
S1130D20CF911F910F91FF90EF90DF90CF90BF90E4
S1130D30AF909F908F907F906F905F904F903F9077
S1130D402F900895FC010590615070400110D8F770
S1130D50809590958E0F9F1F0895FC0161507040FF
S1130D6001900110D8F7809590958E0F9F1F0895DC
S1130D700F931F93CF93DF93FB01238121FD03C0C6
S1130D808FEF9FEF2CC022FF16C04681578124812C
S1130D9035814217530744F4A081B1819D012F5F2F
S1130DA03F4F318320838C93268137812F5F3F4FC0
S1130DB03783268314C08B01EC01FB010084F18589
S1130DC0E02D0995892BE1F6D80116968D919C9119
S1130DD01797019617969C938E931697CE01DF91E1
S1130DE0CF911F910F910895FA01AA27283051F14C
S1130DF0203181F1E8946F936E7F6E5F7F4F8F4F48
S1130E009F4FAF4FB1E03ED0B4E03CD0670F781FA6
S1130E10891F9A1FA11D680F791F8A1F911DA11D8B
S1130E206A0F711D811D911DA11D20D009F46894C4
S1130E303F912AE0269F11243019305D3193DEF66C
S1130E40CF010895462F4770405D4193B3E00FD022
S1130E50C9F7F6CF462F4F70405D4A3318F0495D0D
S1130E6031FD4052419302D0A9F7EACFB4E0A695F0
S1130E709795879577956795BA95C9F70097610512
S1130E80710508959B01AC010A2E06945795479568
S1130E9037952795BA95C9F7620F731F841F951F5D
S10B0EA0A01D0895F894FFCF92
S1130EA854656D703A200054656D703A20252E32D1
S1130EB866204300414C455254005741524E494E16
S10B0EC84700474F4F440000AE
S9030000FC
